{
  "address": "0x67F1D8538C91E82AD874Cb7FC5F316D41A8C15dE",
  "abi": [
    {
      "inputs": [
        {
          "internalType": "uint256",
          "name": "_chainId",
          "type": "uint256"
        },
        {
          "internalType": "address[]",
          "name": "_owners",
          "type": "address[]"
        },
        {
          "internalType": "uint256",
          "name": "_signaturesRequired",
          "type": "uint256"
        }
      ],
      "stateMutability": "nonpayable",
      "type": "constructor"
    },
    {
      "anonymous": false,
      "inputs": [
        {
          "indexed": true,
          "internalType": "address",
          "name": "sender",
          "type": "address"
        },
        {
          "indexed": false,
          "internalType": "uint256",
          "name": "amount",
          "type": "uint256"
        },
        {
          "indexed": false,
          "internalType": "uint256",
          "name": "balance",
          "type": "uint256"
        }
      ],
      "name": "Deposit",
      "type": "event"
    },
    {
      "anonymous": false,
      "inputs": [
        {
          "indexed": true,
          "internalType": "address",
          "name": "owner",
          "type": "address"
        },
        {
          "indexed": false,
          "internalType": "address payable",
          "name": "to",
          "type": "address"
        },
        {
          "indexed": false,
          "internalType": "uint256",
          "name": "value",
          "type": "uint256"
        },
        {
          "indexed": false,
          "internalType": "bytes",
          "name": "data",
          "type": "bytes"
        },
        {
          "indexed": false,
          "internalType": "uint256",
          "name": "nonce",
          "type": "uint256"
        },
        {
          "indexed": false,
          "internalType": "bytes32",
          "name": "hash",
          "type": "bytes32"
        },
        {
          "indexed": false,
          "internalType": "bytes",
          "name": "result",
          "type": "bytes"
        }
      ],
      "name": "ExecuteTransaction",
      "type": "event"
    },
    {
      "anonymous": false,
      "inputs": [
        {
          "indexed": true,
          "internalType": "address",
          "name": "owner",
          "type": "address"
        },
        {
          "indexed": false,
          "internalType": "bool",
          "name": "added",
          "type": "bool"
        }
      ],
      "name": "Owner",
      "type": "event"
    },
    {
      "stateMutability": "payable",
      "type": "fallback"
    },
    {
      "inputs": [
        {
          "internalType": "address",
          "name": "newSigner",
          "type": "address"
        },
        {
          "internalType": "uint256",
          "name": "newSignaturesRequired",
          "type": "uint256"
        }
      ],
      "name": "addSigner",
      "outputs": [],
      "stateMutability": "nonpayable",
      "type": "function"
    },
    {
      "inputs": [],
      "name": "chainId",
      "outputs": [
        {
          "internalType": "uint256",
          "name": "",
          "type": "uint256"
        }
      ],
      "stateMutability": "view",
      "type": "function"
    },
    {
      "inputs": [
        {
          "internalType": "address payable",
          "name": "to",
          "type": "address"
        },
        {
          "internalType": "uint256",
          "name": "value",
          "type": "uint256"
        },
        {
          "internalType": "bytes",
          "name": "data",
          "type": "bytes"
        },
        {
          "internalType": "bytes[]",
          "name": "signatures",
          "type": "bytes[]"
        }
      ],
      "name": "executeTransaction",
      "outputs": [
        {
          "internalType": "bytes",
          "name": "",
          "type": "bytes"
        }
      ],
      "stateMutability": "nonpayable",
      "type": "function"
    },
    {
      "inputs": [
        {
          "internalType": "uint256",
          "name": "_nonce",
          "type": "uint256"
        },
        {
          "internalType": "address",
          "name": "to",
          "type": "address"
        },
        {
          "internalType": "uint256",
          "name": "value",
          "type": "uint256"
        },
        {
          "internalType": "bytes",
          "name": "data",
          "type": "bytes"
        }
      ],
      "name": "getTransactionHash",
      "outputs": [
        {
          "internalType": "bytes32",
          "name": "",
          "type": "bytes32"
        }
      ],
      "stateMutability": "view",
      "type": "function"
    },
    {
      "inputs": [
        {
          "internalType": "address",
          "name": "",
          "type": "address"
        }
      ],
      "name": "isOwner",
      "outputs": [
        {
          "internalType": "bool",
          "name": "",
          "type": "bool"
        }
      ],
      "stateMutability": "view",
      "type": "function"
    },
    {
      "inputs": [],
      "name": "nonce",
      "outputs": [
        {
          "internalType": "uint256",
          "name": "",
          "type": "uint256"
        }
      ],
      "stateMutability": "view",
      "type": "function"
    },
    {
      "inputs": [
        {
          "internalType": "bytes32",
          "name": "_hash",
          "type": "bytes32"
        },
        {
          "internalType": "bytes",
          "name": "_signature",
          "type": "bytes"
        }
      ],
      "name": "recover",
      "outputs": [
        {
          "internalType": "address",
          "name": "",
          "type": "address"
        }
      ],
      "stateMutability": "pure",
      "type": "function"
    },
    {
      "inputs": [
        {
          "internalType": "address",
          "name": "oldSigner",
          "type": "address"
        },
        {
          "internalType": "uint256",
          "name": "newSignaturesRequired",
          "type": "uint256"
        }
      ],
      "name": "removeSigner",
      "outputs": [],
      "stateMutability": "nonpayable",
      "type": "function"
    },
    {
      "inputs": [],
      "name": "signaturesRequired",
      "outputs": [
        {
          "internalType": "uint256",
          "name": "",
          "type": "uint256"
        }
      ],
      "stateMutability": "view",
      "type": "function"
    },
    {
      "inputs": [
        {
          "internalType": "uint256",
          "name": "newSignaturesRequired",
          "type": "uint256"
        }
      ],
      "name": "updateSignaturesRequired",
      "outputs": [],
      "stateMutability": "nonpayable",
      "type": "function"
    },
    {
      "stateMutability": "payable",
      "type": "receive"
    }
  ],
  "transactionHash": "0x918776fd8331e3b6d646ba41f7d2e874a62c00b483dd57314d0cef931d2070d8",
  "args": [
    "5",
    [
      "0x2cE3D0116b78D20eA77DA12bDBA9E78b3ed9D2CD"
    ],
    1
  ],
  "solcInputHash": "28a561a7f69a2ebec4c7c8a6966c817e",
  "bytecode": "0x60806040523480156200001157600080fd5b50604051620015b5380380620015b583398101604081905262000034916200025f565b600081116200009e5760405162461bcd60e51b815260206004820152602b60248201527f436f6e7374727563746f723a206d757374206265206e6f6e2d7a65726f20736960448201526a19dcc81c995c5d5a5c995960aa1b60648201526084015b60405180910390fd5b6001819055815160005b8181101562000232576000848281518110620000d457634e487b7160e01b600052603260045260246000fd5b6020026020010151905060006001600160a01b0316816001600160a01b03161415620001555760405162461bcd60e51b815260206004820152602960248201527f436f6e7374727563746f723a2061646472657373207a65726f2063616e6e6f746044820152681031329037bbb732b960b91b606482015260840162000095565b6001600160a01b03811660009081526020819052604090205460ff1615620001d05760405162461bcd60e51b815260206004820152602760248201527f436f6e7374727563746f723a206e6577206f776e6572206973206f776e657220604482015266616c726561647960c81b606482015260840162000095565b6001600160a01b03811660008181526020818152604091829020805460ff1916600190811790915591519182527ffe545f48304051c4029eb2da9927daa59da0414b4b084fdceaf2955b609b899e910160405180910390a250600101620000a8565b5050506003919091555062000360565b80516001600160a01b03811681146200025a57600080fd5b919050565b60008060006060848603121562000274578283fd5b8351602080860151919450906001600160401b038082111562000295578485fd5b818701915087601f830112620002a9578485fd5b815181811115620002be57620002be6200034a565b8060051b604051601f19603f83011681018181108582111715620002e657620002e66200034a565b604052828152858101935084860182860187018c101562000305578889fd5b8895505b8386101562000332576200031d8162000242565b85526001959095019493860193860162000309565b50809750505050505050604084015190509250925092565b634e487b7160e01b600052604160045260246000fd5b61124580620003706000396000f3fe6080604052600436106100955760003560e01c806365af1bed1161005957806365af1bed146101fb5780639a8a05921461021b578063affed0e014610231578063ce757d2914610247578063d1fbffa01461025d576100d7565b806319045a251461010e5780632f54bf6e1461014b5780633034a7421461018b5780633bad5426146101ad578063545a4a3c146101cd576100d7565b366100d7576040805134815247602082015233917f90890809c654f11d6e72a28fa60149770a0d11ec6c92319d6ceb2bb0a4ea1a1591015b60405180910390a2005b6040805134815247602082015233917f90890809c654f11d6e72a28fa60149770a0d11ec6c92319d6ceb2bb0a4ea1a1591016100cd565b34801561011a57600080fd5b5061012e610129366004610f53565b61028a565b6040516001600160a01b0390911681526020015b60405180910390f35b34801561015757600080fd5b5061017b610166366004610e0a565b60006020819052908152604090205460ff1681565b6040519015158152602001610142565b34801561019757600080fd5b506101ab6101a6366004610f98565b6102f4565b005b3480156101b957600080fd5b506101ab6101c8366004610f28565b610397565b3480156101d957600080fd5b506101ed6101e8366004610fb0565b6104e6565b604051908152602001610142565b34801561020757600080fd5b506101ab610216366004610f28565b610525565b34801561022757600080fd5b506101ed60035481565b34801561023d57600080fd5b506101ed60025481565b34801561025357600080fd5b506101ed60015481565b34801561026957600080fd5b5061027d610278366004610e26565b6106c3565b6040516101429190611106565b60006102ed826102e7856040517f19457468657265756d205369676e6564204d6573736167653a0a3332000000006020820152603c8101829052600090605c01604051602081830303815290604052805190602001209050919050565b906109eb565b9392505050565b33301461031c5760405162461bcd60e51b815260040161031390611119565b60405180910390fd5b600081116103925760405162461bcd60e51b815260206004820152603860248201527f7570646174655369676e61747572657352657175697265643a206d757374206260448201527f65206e6f6e2d7a65726f207369677320726571756972656400000000000000006064820152608401610313565b600155565b3330146103b65760405162461bcd60e51b815260040161031390611119565b6001600160a01b03821660009081526020819052604090205460ff1661041e5760405162461bcd60e51b815260206004820152601760248201527f72656d6f76655369676e65723a206e6f74206f776e65720000000000000000006044820152606401610313565b600081116104835760405162461bcd60e51b815260206004820152602c60248201527f72656d6f76655369676e65723a206d757374206265206e6f6e2d7a65726f207360448201526b1a59dcc81c995c5d5a5c995960a21b6064820152608401610313565b6001600160a01b03821660008181526020818152604091829020805460ff19168155600185905554915160ff909216151582527ffe545f48304051c4029eb2da9927daa59da0414b4b084fdceaf2955b609b899e91015b60405180910390a25050565b600030600354868686866040516020016105059695949392919061103d565b604051602081830303815290604052805190602001209050949350505050565b3330146105445760405162461bcd60e51b815260040161031390611119565b6001600160a01b03821661059a5760405162461bcd60e51b815260206004820152601760248201527f6164645369676e65723a207a65726f20616464726573730000000000000000006044820152606401610313565b6001600160a01b03821660009081526020819052604090205460ff16156106035760405162461bcd60e51b815260206004820152601b60248201527f6164645369676e65723a206f776e6572206e6f7420756e6971756500000000006044820152606401610313565b600081116106655760405162461bcd60e51b815260206004820152602960248201527f6164645369676e65723a206d757374206265206e6f6e2d7a65726f2073696773604482015268081c995c5d5a5c995960ba1b6064820152608401610313565b6001600160a01b03821660008181526020818152604091829020805460ff19166001908117825585905554915160ff909216151582527ffe545f48304051c4029eb2da9927daa59da0414b4b084fdceaf2955b609b899e91016104da565b3360009081526020819052604090205460609060ff166107395760405162461bcd60e51b815260206004820152602b60248201527f657865637574655472616e73616374696f6e3a206f6e6c79206f776e6572732060448201526a63616e206578656375746560a81b6064820152608401610313565b60006107496002548787876104e6565b60028054919250600061075b836111b3565b919050555060008060005b855181101561086a5760006107a28588848151811061079557634e487b7160e01b600052603260045260246000fd5b602002602001015161028a565b9050826001600160a01b0316816001600160a01b0316116108235760405162461bcd60e51b815260206004820152603560248201527f657865637574655472616e73616374696f6e3a206475706c6963617465206f7260448201527420756e6f726465726564207369676e61747572657360581b6064820152608401610313565b6001600160a01b038116600090815260208190526040902054909250829060ff16156108575783610853816111b3565b9450505b5080610862816111b3565b915050610766565b506001548210156108d55760405162461bcd60e51b815260206004820152602f60248201527f657865637574655472616e73616374696f6e3a206e6f7420656e6f756768207660448201526e616c6964207369676e61747572657360881b6064820152608401610313565b600080896001600160a01b031689896040516108f19190611098565b60006040518083038185875af1925050503d806000811461092e576040519150601f19603f3d011682016040523d82523d6000602084013e610933565b606091505b5091509150816109855760405162461bcd60e51b815260206004820152601d60248201527f657865637574655472616e73616374696f6e3a207478206661696c65640000006044820152606401610313565b336001600160a01b03167f9053e9ec105157fac8c9308d63e6b22be5f50fe915a3e567419b624311a02d748b8b8b60016002546109c2919061116c565b8a876040516109d6969594939291906110b4565b60405180910390a29998505050505050505050565b60008060006109fa8585610a0f565b91509150610a0781610a7f565b509392505050565b600080825160411415610a465760208301516040840151606085015160001a610a3a87828585610c83565b94509450505050610a78565b825160401415610a705760208301516040840151610a65868383610d70565b935093505050610a78565b506000905060025b9250929050565b6000816004811115610aa157634e487b7160e01b600052602160045260246000fd5b1415610aaa5750565b6001816004811115610acc57634e487b7160e01b600052602160045260246000fd5b1415610b1a5760405162461bcd60e51b815260206004820152601860248201527f45434453413a20696e76616c6964207369676e617475726500000000000000006044820152606401610313565b6002816004811115610b3c57634e487b7160e01b600052602160045260246000fd5b1415610b8a5760405162461bcd60e51b815260206004820152601f60248201527f45434453413a20696e76616c6964207369676e6174757265206c656e677468006044820152606401610313565b6003816004811115610bac57634e487b7160e01b600052602160045260246000fd5b1415610c055760405162461bcd60e51b815260206004820152602260248201527f45434453413a20696e76616c6964207369676e6174757265202773272076616c604482015261756560f01b6064820152608401610313565b6004816004811115610c2757634e487b7160e01b600052602160045260246000fd5b1415610c805760405162461bcd60e51b815260206004820152602260248201527f45434453413a20696e76616c6964207369676e6174757265202776272076616c604482015261756560f01b6064820152608401610313565b50565b6000807f7fffffffffffffffffffffffffffffff5d576e7357a4501ddfe92f46681b20a0831115610cba5750600090506003610d67565b8460ff16601b14158015610cd257508460ff16601c14155b15610ce35750600090506004610d67565b6040805160008082526020820180845289905260ff881692820192909252606081018690526080810185905260019060a0016020604051602081039080840390855afa158015610d37573d6000803e3d6000fd5b5050604051601f1901519150506001600160a01b038116610d6057600060019250925050610d67565b9150600090505b94509492505050565b6000806001600160ff1b03831660ff84901c601b01610d9187828885610c83565b935093505050935093915050565b600082601f830112610daf578081fd5b813567ffffffffffffffff811115610dc957610dc96111e4565b610ddc601f8201601f191660200161113b565b818152846020838601011115610df0578283fd5b816020850160208301379081016020019190915292915050565b600060208284031215610e1b578081fd5b81356102ed816111fa565b60008060008060808587031215610e3b578283fd5b8435610e46816111fa565b93506020858101359350604086013567ffffffffffffffff80821115610e6a578485fd5b610e7689838a01610d9f565b94506060880135915080821115610e8b578384fd5b818801915088601f830112610e9e578384fd5b813581811115610eb057610eb06111e4565b8060051b610ebf85820161113b565b8281528581019085870183870188018e1015610ed9578889fd5b8893505b84841015610f1657803586811115610ef357898afd5b610f018f8a838b0101610d9f565b84525060019390930192918701918701610edd565b50999c989b5096995050505050505050565b60008060408385031215610f3a578182fd5b8235610f45816111fa565b946020939093013593505050565b60008060408385031215610f65578182fd5b82359150602083013567ffffffffffffffff811115610f82578182fd5b610f8e85828601610d9f565b9150509250929050565b600060208284031215610fa9578081fd5b5035919050565b60008060008060808587031215610fc5578384fd5b843593506020850135610fd7816111fa565b925060408501359150606085013567ffffffffffffffff811115610ff9578182fd5b61100587828801610d9f565b91505092959194509250565b60008151808452611029816020860160208601611183565b601f01601f19169290920160200192915050565b60006bffffffffffffffffffffffff19808960601b168352876014840152866034840152808660601b166054840152508360688301528251611086816088850160208701611183565b91909101608801979650505050505050565b600082516110aa818460208701611183565b9190910192915050565b60018060a01b038716815285602082015260c0604082015260006110db60c0830187611011565b85606084015284608084015282810360a08401526110f98185611011565b9998505050505050505050565b6020815260006102ed6020830184611011565b6020808252600890820152672737ba1029b2b63360c11b604082015260600190565b604051601f8201601f1916810167ffffffffffffffff81118282101715611164576111646111e4565b604052919050565b60008282101561117e5761117e6111ce565b500390565b60005b8381101561119e578181015183820152602001611186565b838111156111ad576000848401525b50505050565b60006000198214156111c7576111c76111ce565b5060010190565b634e487b7160e01b600052601160045260246000fd5b634e487b7160e01b600052604160045260246000fd5b6001600160a01b0381168114610c8057600080fdfea2646970667358221220704edbc8eef707efffb9103581cb7ed7dcd6f352daecb4bbaec4dfad8beb169e64736f6c63430008040033",
  "devdoc": {
    "kind": "dev",
    "methods": {},
    "version": 1
  },
  "userdoc": {
    "kind": "user",
    "methods": {},
    "version": 1
  },
  "storageLayout": {
    "storage": [
      {
        "astId": 407,
        "contract": "contracts/YourContract.sol:MetaMultiSigWallet",
        "label": "isOwner",
        "offset": 0,
        "slot": "0",
        "type": "t_mapping(t_address,t_bool)"
      },
      {
        "astId": 409,
        "contract": "contracts/YourContract.sol:MetaMultiSigWallet",
        "label": "signaturesRequired",
        "offset": 0,
        "slot": "1",
        "type": "t_uint256"
      },
      {
        "astId": 411,
        "contract": "contracts/YourContract.sol:MetaMultiSigWallet",
        "label": "nonce",
        "offset": 0,
        "slot": "2",
        "type": "t_uint256"
      },
      {
        "astId": 413,
        "contract": "contracts/YourContract.sol:MetaMultiSigWallet",
        "label": "chainId",
        "offset": 0,
        "slot": "3",
        "type": "t_uint256"
      }
    ],
    "types": {
      "t_address": {
        "encoding": "inplace",
        "label": "address",
        "numberOfBytes": "20"
      },
      "t_bool": {
        "encoding": "inplace",
        "label": "bool",
        "numberOfBytes": "1"
      },
      "t_mapping(t_address,t_bool)": {
        "encoding": "mapping",
        "key": "t_address",
        "label": "mapping(address => bool)",
        "numberOfBytes": "32",
        "value": "t_bool"
      },
      "t_uint256": {
        "encoding": "inplace",
        "label": "uint256",
        "numberOfBytes": "32"
      }
    }
  }
}